S00D000053706565642E7372656326
S11300000C9446000C9465000C9465000C946500F7
S11300100C9465000C9465000C9465000C946500C8
S11300200C9465000C9465000C9465000C946500B8
S11300300C9465000C9465000C9477000C94650096
S11300400C9465000C9465000C9465000C94650098
S11300500C9465000C9465000C9465000C94650088
S11300600C9465000C9465000C9465000C94650078
S11300700C9465000C9465000C9465000C94650068
S11300800C9465000C9465000C94650011241FBE4B
S1130090CFEFD0E1DEBFCDBF11E0A0E0B1E0E8E8F2
S11300A0FCE000E00BBF02C007900D92A430B10742
S11300B0D9F721E0A4E0B1E001C01D92A733B20753
S11300C0E1F70E9497030C9442060C9400008FB54C
S11300D083608FBD8EB58B618EBD8091050190913B
S11300E006019BBD8ABD87B7846087BF08951F92B0
S11300F00F920FB60F9211248F93C09A85E38A95BD
S1130100F1F70000C0988F910F900FBE0F901F90D1
S1130110189591E0811101C090E09FB9779BFECFC3
S11301206FB9779BFECF80916200886080936200F4
S113013080916200877F809362000895CF93C0917D
S113014004018C0F911DFC01608181E00E948900F3
S113015081E08C0F80930401803181F0803211F0B2
S1130160CF91089585ED8A95F1F7000060E880E06D
S11301700E94890010920401CF910895F5EDFA953B
S1130180F1F7000060EC80E00E9489008091040196
S1130190E5CFEF92FF920F931F93CF93DF931F92BC
S11301A0CDB7DEB7182F660F660F660F605C80E070
S11301B099830E94890085ED8A95F1F70000E12E6C
S11301C09981F92E8701085F1F4FF70161917F0123
S11301D081E00E948900F5EDFA95F1F70000E01640
S11301E0F10699F70F90DF91CF911F910F91FF9036
S11301F0EF90089590E4899F600D1124605C80E085
S11302000C948900CF938823B9F1C82F843698F4CD
S11302108A30D8F48DECC89F812D1124869586955B
S113022086956C2F2AE0829F60191124605D81E01D
S1130230CF910C94890069E2869F612D1124629507
S11302406F70605D81E00E94890089E2C89F812D02
S1130250112482958F709C2F24E6829F901911247B
S11302606DEC969F612D1124669566956695605D8B
S113027081E00E948900CECF60E381E0CF910C94AD
S11302808900CF9387FD03C0CF910C940201C82F3E
S11302906DE281E00E94890085ED8A95F1F7000006
S11302A08C2F8195CF910C9402016EE080E00C9428
S11302B089006CE080E00C9489006EE180E00C948D
S11302C0890068E180E00C948900E2E6F0E0808136
S11302D0886080838081877F8083089561E080E0E7
S11302E00E9489008FE19CE10197F1F700C00000B2
S11302F0089562E080E00E9489008FE697E101970B
S1130300F1F700C00000089560EC80E00C948900CF
S113031060E880E00C948900CF93C0E160E281E062
S11303200E94890085ED8A95F1F70000C150B1F76C
S1130330CF910895682F81E00C9489000F931F9347
S1130340CF938C0140E050E0C0E0F801E40FF51FCA
S1130350608181E00E94890085ED8A95F1F70000B3
S1130360CF5F4C2F50E0F80101900020E9F79F0186
S1130370201B310B225031092417350730F7CF9158
S11303801F910F9108958FEF99EF0197F1F700C036
S1130390000088E08093610060E380E00E948900AF
S11303A08FE59DE60197F1F700C0000060E380E06F
S11303B00E9489008FE59DE60197F1F700C00000D7
S11303C060E380E00E9489008FE59DE60197F1F7E4
S11303D000C0000068E380E00E9489008FE19EE491
S11303E00197F1F700C0000068E080E00E948900F6
S11303F08FE19EE40197F1F700C0000061E080E026
S11304000E9489008FE19EE40197F1F700C000008B
S113041066E080E00E9489008FE19EE40197F1F795
S113042000C000006CE080E00E9489008FE19EE43F
S11304300197F1F700C0000008958F929F92AF9248
S1130440BF92CF92DF92EF92FF920F931F93CF93BD
S1130450DF93CDB7DEB769970FB6F894DEBF0FBE52
S1130460CDBFF42E122F002359F04B015C018824D8
S1130470B7FC83949924AA24BB24082D97FD8FC02C
S1130480112309F484C09E012F5F3F4F6901590174
S113049088248A94810E912C3FEF831A930A8C0C42
S11304A09D1C2AE030E040E050E00E941504E62F55
S11304B02A8B3B8B4C8B5D8B6A897B898C899D89CC
S11304C020E32E0FF50121935F01E815F90549F7A3
S11304D0BB24B394B10EF601E10FF11D2EE220838B
S11304E02AE030E040E050E00E941504E62F2A8B19
S11304F03B8B4C8B5D8B6E8B7F8B888F998F6A893E
S11305007B898C899D8911E01B0DD601AB0DB11D32
S1130510E05DEC93B12E611571058105910501F73C
S1130520FF2061F0E11039C080E21F1538F4F601B4
S1130530E10FF11D80831F5F1F11F9CF002331F0FC
S1130540F601E10FF11D8DE280831F5F1150F6016A
S1130550E10FF11D608181E00E94890035ED3A953B
S1130560F1F700001111F2CF69960FB6F894DEBFCF
S11305700FBECDBFDF91CF911F910F91FF90EF90F0
S1130580DF90CF90BF90AF909F908F900895B12C43
S11305909E012F5F3F4F6901A3CF80E3C6CF9095A3
S11305A08095709561957F4F8F4F9F4F69CF5F9274
S11305B06F927F928F929F92AF92BF92CF92DF926F
S11305C0EF92FF920F931F93CF93DF93CDB7DEB7D4
S11305D061970FB6F894DEBF0FBECDBFA62E542E82
S11305E0622E792E771C7724771CB72CC72CD12C3C
S11305F0EE27FF27EC19FD098E279F27FC01EC0D40
S1130600FD1D442309F48EC0CE0101967C018C01AA
S113061088248A94840E912C9FEF891A990A8E0C4F
S11306209F1C6AE070E0CF010E940104262FE22F94
S1130630F72F805DD8018D938D01A815B90589F731
S113064001E0050DD701A50DB11D8EE28C936AE082
S113065070E0CF010E940104262FE22FF72F11E052
S1130660100FD701A00FB11D805D8C93012F30971F
S113067071F7611015C0772039F011E0100FF70100
S1130680E00FF11D8DE28083AA2041F1812F90E0DB
S11306902A2D30E0821793070CF5B12C40E20CC0F0
S11306A0AA20A1F0812F90E02A2D30E02C193D09D9
S11306B0821793075CF440E31F5FF701E80FF91F0B
S11306C04083812F90E082179307B4F3BB2031F06D
S11306D0F701E10FF11D8DE280831F5F1150F701D7
S11306E0E10FF11D608181E00E94890095ED9A95EA
S11306F0F1F700001111F2CF61960FB6F894DEBF46
S11307000FBECDBFDF91CF911F910F91FF90EF905E
S1130710DF90CF90BF90AF909F908F907F906F901D
S11307205F90089500E0CE0101967C0190CF609126
S1130730010170E080E090E00E94140520ED3FE0AC
S113074049E450E40E94A0056B017C018091000102
S1130750682F70E080E090E00E9414059B01AC01DA
S1130760C701B6010E946A046B017C0180910201F9
S1130770682F70E080E090E00E9414052DEC3CECC2
S11307804CE851E40E94A0059B01AC01C701B601ED
S11307900E946A046B017C0120E034E244E75BE4DC
S11307A00E94A00520E030E040E85CE30E94A00540
S11307B00E94E3047093060160930501C701B6012A
S11307C00E94DC04DC01CB0140E267E071E00E949E
S11307D00D0687E091E00E949E00B89A8FB5836071
S11307E08FBD8EB58B618EBD809105019091060100
S11307F09BBD8ABD87B7846087BF0E94C30178947C
S1130800FFCF97FB072E16F4009407D077FD09D08D
S11308100E94340407FC05D03EF4909581959F4FC7
S11308200895709561957F4F0895052E97FB1EF4EA
S113083000940E942C0457FD07D00E94480407FC32
S113084003D04EF40C942C0450954095309521958A
S11308503F4F4F4F5F4F08959095809570956195E8
S11308607F4F8F4F9F4F0895AA1BBB1B51E107C0B9
S1130870AA1FBB1FA617B70710F0A61BB70B881F2C
S1130880991F5A95A9F780959095BC01CD010895BB
S1130890A1E21A2EAA1BBB1BFD010DC0AA1FBB1F80
S11308A0EE1FFF1FA217B307E407F50720F0A21BF2
S11308B0B30BE40BF50B661F771F881F991F1A945F
S11308C069F760957095809590959B01AC01BD0189
S11308D0CF0108950E947E040C9466050E945F0572
S11308E058F00E94580540F029F45F3F29F00C9419
S11308F04F0551110C949A050C9455050E947705E7
S113090068F39923B1F3552391F3951B550BBB273A
S1130910AA2762177307840738F09F5F5F4F220F7F
S1130920331F441FAA1FA9F335D00E2E3AF0E0E876
S113093032D091505040E695001CCAF72BD0FE2FC0
S113094029D0660F771F881FBB1F26173707480754
S1130950AB07B0E809F0BB0B802DBF01FF2793580C
S11309605F4F3AF09E3F510578F00C944F050C947C
S11309709A055F3FE4F3983ED4F38695779567959F
S1130980B795F7959F5FC9F7880F911D9695879541
S113099097F90895E1E0660F771F881FBB1F621760
S11309A073078407BA0720F0621B730B840BBA0B1E
S11309B0EE1F88F7E09508950E94E3046894B1114E
S11309C00C949A0508950E947F0588F09F5798F02B
S11309D0B92F9927B751B0F0E1F0660F771F881F40
S11309E0991F1AF0BA95C9F714C0B13091F00E945A
S11309F09905B1E008950C949905672F782F8827FD
S1130A00B85F39F0B93FCCF3869577956795B39580
S1130A10D9F73EF490958095709561957F4F8F4FEF
S1130A209F4F0895E89409C097FB3EF490958095F4
S1130A30709561957F4F8F4F9F4F9923A9F0F92FA0
S1130A4096E9BB279395F695879577956795B7951E
S1130A50F111F8CFFAF4BB0F11F460FF1BC06F5F04
S1130A607F4F8F4F9F4F16C0882311F096E911C016
S1130A70772321F09EE8872F762F05C0662371F037
S1130A8096E8862F70E060E02AF09A95660F771F4B
S1130A90881FDAF7880F9695879597F9089597F93F
S1130AA09F6780E870E060E008959FEF80EC089510
S1130AB000240A9416161706180609060895002439
S1130AC00A9412161306140605060895092E0394B3
S1130AD0000C11F4882352F0BB0F40F4BF2B11F427
S1130AE060FF04C06F5F7F4F8F4F9F4F089557FD86
S1130AF09058440F551F59F05F3F71F04795880F88
S1130B0097FB991F61F09F3F79F08795089512161E
S1130B1013061406551FF2CF4695F1DF08C01616CA
S1130B2017061806991FF1CF86957105610508947B
S1130B300895E894BB2766277727CB0197F9089592
S1130B400E94B3050C9466050E94580538F00E9473
S1130B505F0520F0952311F00C944F050C94550576
S1130B6011240C949A050E94770570F3959FC1F3A4
S1130B70950F50E0551F629FF001729FBB27F00D47
S1130B80B11D639FAA27F00DB11DAA1F649F66279C
S1130B90B00DA11D661F829F2227B00DA11D621FEB
S1130BA0739FB00DA11D621F839FA00D611D221FA5
S1130BB0749F3327A00D611D231F849F600D211D89
S1130BC0822F762F6A2F11249F5750409AF0F1F00C
S1130BD088234AF0EE0FFF1FBB1F661F771F881F75
S1130BE091505040A9F79E3F510580F00C944F0559
S1130BF00C949A055F3FE4F3983ED4F38695779579
S1130C006795B795F795E7959F5FC1F7FE2B880F1A
S1130C10911D9695879597F90895BB274A3031F42D
S1130C20992322F4BDE2909581959F4F0C94190667
S1130C30BB27FB015527AA27880F991FAA1FA417B2
S1130C4010F0A41B83955051B9F7A05DAA3308F0A6
S1130C50A95DA193009779F7B111B1931192CB01DA
S1130C600C943206DC01FC01672F71917723E1F7C4
S1130C70329704C07C916D9370836291AE17BF0765
S10B0C80C8F30895F894FFCFB6
S1070C882A1619000B
S9030000FC
