:100000000C9446000C9465000C9465000C946500FB
:100010000C9465000C9465000C9465000C946500CC
:100020000C9465000C9465000C9465000C946500BC
:100030000C9465000C9465000C94A6010C9465006A
:100040000C9465000C9465000C9465000C9465009C
:100050000C9465000C9465000C9465000C9465008C
:100060000C9465000C9465000C9465000C9465007C
:100070000C9465000C9465000C9465000C9465006C
:100080000C9465000C9465000C94650011241FBE4F
:10009000CFEFD0E1DEBFCDBF11E0A0E0B1E0EEE6F2
:1000A000FFE000E00BBF02C007900D92AE30B10739
:1000B000D9F721E0AEE0B1E001C01D92A136B20750
:1000C000E1F70E94C6040C94B5070C9400008F92CF
:1000D0009F92AF92BF92CF92DF92EF92FF926B010D
:1000E0007C010E948B064B015C0180E090E00E9445
:1000F000BA069B01AC01C701B6010E94AC0520E025
:1001000030E543EC57E40E9448070E948B066B01E0
:100110007C01EFE0F1E09401ADECBCEC0E946705DE
:10012000AC015695479556954795569547959A0132
:100130000E946705969587959695879596958795DC
:100140009C01220F331F880F991F880F991F880F5A
:10015000991F820F931FDA01A81BB90BA050BF4F44
:100160008C918083CA01880F991F440F551F440F3B
:10017000551F440F551F480F591FC401841B950B71
:10018000DC01A050BF4F8C9181838EE28283960167
:10019000329522952F7023273F702327A7E4B3E0E1
:1001A0000E946705AC01569547955695479556951B
:1001B00047959A01ADECBCEC0E9467059695879532
:1001C00096958795969587959C01220F331F880FEA
:1001D000991F880F991F880F991F820F931F481B23
:1001E000590BDA01A050BF4F8C918383960136954D
:1001F00027953695279536952795A5ECB0E20E9470
:100200006705AC01529542954F7045275F704527B1
:100210009A01ADECBCEC0E94670596958795969582
:100220008795969587959C01220F331F880F991FFC
:10023000880F991F880F991F820F931F481B590B16
:10024000DA01A050BF4F8C91848396013695279593
:1002500036952795ABE7B4E10E946705AC0156954A
:1002600047959A01ADECBCEC0E9467059695879581
:1002700096958795969587959C01220F331F880F39
:10028000991F880F991F880F991F820F931F481B72
:10029000590BDA01A050BF4F8C9185839601ADECCC
:1002A000BCEC0E946705AC0156954795569547955D
:1002B000569547959A010E9467059695879596955C
:1002C0008795969587959C01220F331F880F991F5C
:1002D000880F991F880F991F820F931FDA01A81B9F
:1002E000B90BA050BF4F8C918683CA01880F991F0C
:1002F000440F551F440F551F440F551F480F591FDA
:10030000C601841B950BDC01A050BF4F8C918783E5
:10031000FF90EF90DF90CF90BF90AF909F908F9025
:1003200008958FB583608FBD8EB58B618EBD809132
:100330002F01909130019BBD8ABD87B7846087BF34
:10034000089580E58DB981E08EB908951F920F92CE
:100350000FB60F9211248F93C09A85E38A95F1F717
:100360000000C0988F910F900FBE0F901F901895AE
:1003700091E0811101C090E09FB9779BFECF6FB9EA
:10038000779BFECF809162008860809362008091AD
:100390006200877F809362000895CF93C0910E0121
:1003A0008C0F911DFC01608181E00E94B80181E009
:1003B0008C0F80930E01803181F0803211F0CF914B
:1003C000089585ED8A95F1F7000060E880E00E94CD
:1003D000B80110920E01CF910895F5EDFA95F1F75D
:1003E000000060EC80E00E94B80180910E01E5CF32
:1003F000EF92FF920F931F93CF93DF931F92CDB78E
:10040000DEB7182F660F660F660F605C80E0998379
:100410000E94B80185ED8A95F1F70000E12E9981DF
:10042000F92E8701085F1F4FF70161917F0181E07D
:100430000E94B801F5EDFA95F1F70000E016F1061B
:1004400099F70F90DF91CF911F910F91FF90EF904F
:10045000089590E4899F600D1124605C80E00C9405
:10046000B801CF938823B9F1C82F843698F48A3025
:10047000D8F48DECC89F812D11248695869586959C
:100480006C2F2AE0829F60191124605D81E0CF917A
:100490000C94B80169E2869F612D112462956F70FA
:1004A000605D81E00E94B80189E2C89F812D11241E
:1004B00082958F709C2F24E6829F901911246DECF9
:1004C000969F612D1124669566956695605D81E025
:1004D0000E94B801CECF60E381E0CF910C94B801C7
:1004E000CF9387FD03C0CF910C943102C82F6DE2EA
:1004F00081E00E94B80185ED8A95F1F700008C2F0C
:100500008195CF910C9431026EE080E00C94B8019B
:100510006CE080E00C94B8016EE180E00C94B801CE
:1005200068E180E00C94B801E2E6F0E08081886048
:1005300080838081877F8083089561E080E00E94CE
:10054000B8018FE19CE10197F1F700C00000089528
:1005500062E080E00E94B8018FE697E10197F1F731
:1005600000C00000089560EC80E00C94B80160E8E1
:1005700080E00C94B801CF93C0E160E281E00E947A
:10058000B80185ED8A95F1F70000C150B1F7CF9120
:100590000895682F81E00C94B8010F931F93CF93B7
:1005A0008C0140E050E0C0E0F801E40FF51F6081ED
:1005B00081E00E94B80185ED8A95F1F70000CF5FD8
:1005C0004C2F50E0F80101900020E9F79F01201B1B
:1005D000310B225031092417350730F7CF911F9185
:1005E0000F9108958FEF99EF0197F1F700C0000088
:1005F00088E08093610060E380E00E94B8018FE5AD
:100600009DE60197F1F700C0000060E380E00E94E2
:10061000B8018FE59DE60197F1F700C0000060E3A7
:1006200080E00E94B8018FE59DE60197F1F700C0D8
:10063000000068E380E00E94B8018FE19EE401972A
:10064000F1F700C0000068E080E00E94B8018FE18F
:100650009EE40197F1F700C0000061E080E00E9495
:10066000B8018FE19EE40197F1F700C0000066E059
:1006700080E00E94B8018FE19EE40197F1F700C08D
:1006800000006CE080E00E94B8018FE19EE40197D9
:10069000F1F700C0000008958F929F92AF92BF9231
:1006A000CF92DF92EF92FF920F931F93CF93DF933E
:1006B000CDB7DEB769970FB6F894DEBF0FBECDBFDA
:1006C000F42E122F002359F04B015C018824B7FC53
:1006D00083949924AA24BB24082D97FD8FC011234D
:1006E00009F484C09E012F5F3F4F6901590188249E
:1006F0008A94810E912C3FEF831A930A8C0C9D1CD7
:100700002AE030E040E050E00E944805E62F2A8BC6
:100710003B8B4C8B5D8B6A897B898C899D8920E31F
:100720002E0FF50121935F01E815F90549F7BB2468
:10073000B394B10EF601E10FF11D2EE220832AE001
:1007400030E040E050E00E944805E62F2A8B3B8BCA
:100750004C8B5D8B6E8B7F8B888F998F6A897B89A1
:100760008C899D8911E01B0DD601AB0DB11DE05D9B
:10077000EC93B12E611571058105910501F7FF20FC
:1007800061F0E11039C080E21F1538F4F601E10F85
:10079000F11D80831F5F1F11F9CF002331F0F60197
:1007A000E10FF11D8DE280831F5F1150F601E10F13
:1007B000F11D608181E00E94B80135ED3A95F1F7B5
:1007C00000001111F2CF69960FB6F894DEBF0FBE8C
:1007D000CDBFDF91CF911F910F91FF90EF90DF90F0
:1007E000CF90BF90AF909F908F900895B12C9E01B5
:1007F0002F5F3F4F6901A3CF80E3C6CF90958095CF
:10080000709561957F4F8F4F9F4F69CF5F926F9229
:100810007F928F929F92AF92BF92CF92DF92EF9290
:10082000FF920F931F93CF93DF93CDB7DEB76197FE
:100830000FB6F894DEBF0FBECDBFA62E542E622E8B
:10084000792E771C7724771CB72CC72CD12CEE2758
:10085000FF27EC19FD098E279F27FC01EC0DFD1DDC
:10086000442309F48EC0CE0101967C018C018824BA
:100870008A94840E912C9FEF891A990A8E0C9F1CE2
:100880006AE070E0CF010E943405262FE22FF72F97
:10089000805DD8018D938D01A815B90589F701E018
:1008A000050DD701A50DB11D8EE28C936AE070E0B5
:1008B000CF010E943405262FE22FF72F11E0100FF1
:1008C000D701A00FB11D805D8C93012F309771F778
:1008D000611015C0772039F011E0100FF701E00F1B
:1008E000F11D8DE28083AA2041F1812F90E02A2D15
:1008F00030E0821793070CF5B12C40E20CC0AA201F
:10090000A1F0812F90E02A2D30E02C193D098217AB
:1009100093075CF440E31F5FF701E80FF91F408382
:10092000812F90E082179307B4F3BB2031F0F701D9
:10093000E10FF11D8DE280831F5F1150F701E10F80
:10094000F11D608181E00E94B80195ED9A95F1F763
:1009500000001111F2CF61960FB6F894DEBF0FBE02
:10096000CDBFDF91CF911F910F91FF90EF90DF905E
:10097000CF90BF90AF909F908F907F906F905F903F
:10098000089500E0CE0101967C0190CF60910B01AB
:1009900070E080E090E00E94BC0620ED3FE049E47A
:1009A00050E40E9448076B017C0180910A01682F86
:1009B00070E080E090E00E94BC069B01AC01C701A2
:1009C000B6010E9419066B017C0180910C01682F11
:1009D00070E080E090E00E94BC062DEC3CEC4CE81E
:1009E00051E40E9448079B01AC01C701B6010E9477
:1009F000190620E034E244E75BE40E94480720E067
:100A000030E040E85CE30E9448070E948B06709348
:100A1000300160932F01C701B6010E9467008FEF7C
:100A200087BB8FB583608FBD8EB58B618EBD809186
:100A30002F01909130019BBD8ABD87B7846087BF2D
:100A400080E58DB981E08EB90E94F2020E949D027C
:100A500078948FE091E00E94CD0187EC90E00197BF
:100A6000F1F700C00000F5CF97FB072E16F40094B5
:100A700007D077FD09D00E94760507FC05D03EF42B
:100A8000909581959F4F0895709561957F4F08953A
:100A9000052E97FB1EF400940E945F0557FD07D0BA
:100AA0000E948A0507FC03D04EF40C945F05509514
:100AB0004095309521953F4F4F4F5F4F089590954A
:100AC0008095709561957F4F8F4F9F4F0895A29F9E
:100AD000B001B39FC001A39F700D811D1124911D12
:100AE000B29F700D811D1124911D0895AA1BBB1B7F
:100AF00051E107C0AA1FBB1FA617B70710F0A61B1E
:100B0000B70B881F991F5A95A9F780959095BC013E
:100B1000CD010895A1E21A2EAA1BBB1BFD010DC039
:100B2000AA1FBB1FEE1FFF1FA217B307E407F5079D
:100B300020F0A21BB30BE40BF50B661F771F881F79
:100B4000991F1A9469F760957095809590959B010F
:100B5000AC01BD01CF0108955058BB27AA270E94C0
:100B6000C4050C940E070E94000738F00E94070786
:100B700020F039F49F3F19F426F40C94FD060EF48E
:100B8000E095E7FB0C94F706E92F0E941F0758F346
:100B9000BA17620773078407950720F079F4A6F562
:100BA0000C9441070EF4E0950B2EBA2FA02D0B01EB
:100BB000B90190010C01CA01A0011124FF27591BA2
:100BC00099F0593F50F4503E68F11A16F040A22FA8
:100BD000232F342F4427585FF3CF46953795279519
:100BE000A795F0405395C9F77EF41F16BA0B620B18
:100BF000730B840BBAF09150A1F0FF0FBB1F661F5F
:100C0000771F881FC2F70EC0BA0F621F731F841FA1
:100C100048F4879577956795B795F7959E3F08F0C7
:100C2000B0CF9395880F08F09927EE0F9795879589
:100C300008950E942D060C940E070E94070758F095
:100C40000E94000740F029F45F3F29F00C94F7065A
:100C500051110C9442070C94FD060E941F0768F383
:100C60009923B1F3552391F3951B550BBB27AA2765
:100C700062177307840738F09F5F5F4F220F331F9F
:100C8000441FAA1FA9F335D00E2E3AF0E0E832D067
:100C900091505040E695001CCAF72BD0FE2F29D06A
:100CA000660F771F881FBB1F261737074807AB073C
:100CB000B0E809F0BB0B802DBF01FF2793585F4FB1
:100CC0003AF09E3F510578F00C94F7060C944207D9
:100CD0005F3FE4F3983ED4F3869577956795B79593
:100CE000F7959F5FC9F7880F911D9695879597F99E
:100CF0000895E1E0660F771F881FBB1F6217730717
:100D00008407BA0720F0621B730B840BBA0BEE1F2B
:100D100088F7E09508950E94270788F09F5798F07C
:100D2000B92F9927B751B0F0E1F0660F771F881FF0
:100D3000991F1AF0BA95C9F714C0B13091F00E940A
:100D40004107B1E008950C944107672F782F882759
:100D5000B85F39F0B93FCCF3869577956795B39531
:100D6000D9F73EF490958095709561957F4F8F4FA0
:100D70009F4F0895E89409C097FB3EF490958095A5
:100D8000709561957F4F8F4F9F4F9923A9F0F92F51
:100D900096E9BB279395F695879577956795B795CF
:100DA000F111F8CFFAF4BB0F11F460FF1BC06F5FB5
:100DB0007F4F8F4F9F4F16C0882311F096E911C0C7
:100DC000772321F09EE8872F762F05C0662371F0E8
:100DD00096E8862F70E060E02AF09A95660F771FFC
:100DE000881FDAF7880F9695879597F9089597F9F0
:100DF0009F6780E870E060E008959FEF80EC0895C1
:100E000000240A94161617061806090608950024E9
:100E10000A9412161306140605060895092E039463
:100E2000000C11F4882352F0BB0F40F4BF2B11F4D7
:100E300060FF04C06F5F7F4F8F4F9F4F089557FD36
:100E40009058440F551F59F05F3F71F04795880F38
:100E500097FB991F61F09F3F79F0879508951216CF
:100E600013061406551FF2CF4695F1DF08C016167B
:100E700017061806991FF1CF86957105610508942C
:100E80000895E894BB2766277727CB0197F9089543
:100E90000E945B070C940E070E94000738F00E9426
:100EA000070720F0952311F00C94F7060C94FD062B
:100EB00011240C9442070E941F0770F3959FC1F301
:100EC000950F50E0551F629FF001729FBB27F00DF8
:100ED000B11D639FAA27F00DB11DAA1F649F66274D
:100EE000B00DA11D661F829F2227B00DA11D621F9C
:100EF000739FB00DA11D621F839FA00D611D221F56
:100F0000749F3327A00D611D231F849F600D211D39
:100F1000822F762F6A2F11249F5750409AF0F1F0BC
:100F200088234AF0EE0FFF1FBB1F661F771F881F25
:100F300091505040A9F79E3F510580F00C94F70660
:100F40000C9442075F3FE4F3983ED4F3869577957F
:100F50006795B795F795E7959F5FC1F7FE2B880FCB
:0E0F6000911D9695879597F90895F894FFCF07
:0E0F6E00303132333435363738392A1619000F
:00000001FF
